:1000000000800020A9060000490700007D070000CD
:100010006107000099070000B5070000000000001C
:10002000000000000000000000000000D5070000F4
:10003000D507000000000000D50700009D02000069
:10004000D5070000D5070000D5070000D507000040
:10005000D5070000D5070000D5070000D507000030
:10006000D5070000D5070000D5070000D507000020
:10007000D5070000D5070000D5070000D507000010
:10008000D5070000D5070000D5070000D507000000
:10009000D5070000D5070000D5070000D5070000F0
:1000A000D5070000D5070000D507000000000000BC
:1000B000D5070000D5070000D507000000000000AC
:1000C00000000000D5070000D5070000D50700009C
:1000D000D5070000D5070000D5070000D5070000B0
:1000E000D50700000000000000000000D507000058
:1000F000D5070000D5070000D5070000D507000090
:10010000D5070000D5070000D5070000D50700007F
:1001100000000000000000000000000000000000DF
:1001200000000000D5070000D5070000D50700003B
:10013000D5070000D5070000D5070000D50700004F
:1001400000000000000000000000000000000000AF
:10015000D5070000D5070000D5070000D50700002F
:10016000000000000000000000000000000000008F
:10017000000000000000000000000000000000007F
:10018000000000000000000000000000000000006F
:10019000000000000000000000000000000000005F
:1001A000000000000000000000000000000000004F
:1001B000D5070000D5070000D5070000D5070000CF
:1001C000D5070000D5070000D5070000D5070000BF
:1001D000D5070000D5070000D5070000D5070000AF
:1001E000D5070000D5070000D5070000000000007B
:1001F00000000000000000000000000000000000FF
:1002000000000000000000000000000000000000EE
:1002100000000000000000000000000000000000DE
:1002200000000000000000000000000000000000CE
:1002300000000000000000000000000000000000BE
:1002400000000000000000000000000000000000AE
:100250000000000000000000D5070000D5070000E6
:10026000D5070000D5070000D507000080B400AF17
:10027000BFF34F8F00BF074BDB6803F4E062054913
:10028000054B1343CB60BFF34F8F00BF00BF00BFD0
:10029000FCE700BF00ED00E00400FA0580B500AF08
:1002A0000221012000F052F800BF80BDFFF7DEFF01
:1002B00000BF000080B483B000AF03460A46FB7164
:1002C0001346BB71FB79012B08D10C4BD3F80024EA
:1002D000BB790A491343C1F8003409E0074BD3F84E
:1002E0000034BA79D2431146044A0B40C2F80034B4
:1002F00000BF0C37BD4680BC704700BF00500240B5
:1003000080B483B000AF03460A46FB711346BB714D
:10031000FB79012B08D10C4BD3F81C25BB790A497A
:100320001343C1F81C3509E0074BD3F81C35BA79E3
:10033000D2431146044A0B40C2F81C3500BF0C37AB
:10034000BD4680BC704700BF0050024080B483B0FF
:1003500000AF03460A46FB711346BB71FB79012BC4
:100360000AD10C4ABB7952F82310BA790948BB79F3
:100370004A4040F8232007E0064BD3F8FC23BB7922
:1003800004495340C1F8FC3300BF0C37BD4680BC64
:10039000704700BF0050024080B483B000AF0346F6
:1003A0000A46FB711346BB71FB79012B05D1094944
:1003B000BB79BA7941F8232007E0064BD3F8FC2338
:1003C000BB7904491343C1F8FC3300BF0C37BD4669
:1003D00080BC70470050024080B483B000AF034639
:1003E0000A46FB711346BB71FB79012B05D10A4A02
:1003F000BB79002142F8231009E0074BD3F8FC3306
:10040000BA79D2431146044A0B40C2F8FC3300BF0C
:100410000C37BD4680BC70470050024080B483B0AA
:1004200000AF0346FB71FB79012B09D10B4B002276
:100430009A600A4B00221A61084B00221A6207E0F8
:10044000064BD3F8FC33054A23F00E03C2F8FC3305
:1004500000BF0C37BD4680BC704700BF0050024053
:1004600080B483B000AF03460A46FB711346BB71EC
:10047000FB79012B08D10C4BD3F80024BB790A4936
:100480001343C1F8003409E0074BD3F80034BA79BC
:10049000D2431146044A0B40C2F8003400BF0C3767
:1004A000BD4680BC704700BF00D0054080B483B01B
:1004B00000AF03460A46FB711346BB71FB79012B63
:1004C00008D10C4BD3F81C25BB790A491343C1F85A
:1004D0001C3509E0074BD3F81C35BA79D2431146D5
:1004E000044A0B40C2F81C3500BF0C37BD4680BC27
:1004F000704700BF00D0054080B483B000AF034612
:100500000A46FB711346BB71FB79012B0AD10C4AD9
:10051000BB7952F82310BA790948BB794A4040F8B0
:10052000232007E0064BD3F8FC23BB790449534052
:10053000C1F8FC3300BF0C37BD4680BC704700BF1C
:1005400000D0054080B483B000AF03460A46FB717B
:100550001346BB71FB79012B05D10949BB79BA79E7
:1005600041F8232007E0064BD3F8FC23BB7904496C
:100570001343C1F8FC3300BF0C37BD4680BC704745
:1005800000D0054080B483B000AF03460A46FB713B
:100590001346BB71FB79012B05D10A4ABB790021B7
:1005A00042F8231009E0074BD3F8FC33BA79D24361
:1005B0001146044A0B40C2F8FC3300BF0C37BD465D
:1005C00080BC704700D0054080B483B000AF0346C4
:1005D000FB71FB79012B09D10B4B00229A600A4B6E
:1005E00000221A61084B00221A6207E0064BD3F87A
:1005F000FC33054A23F00E03C2F8FC3300BF0C376E
:10060000BD4680BC704700BF00D0054080B500AF3C
:10061000184BD3F80836174A43F02003C2F80836BF
:10062000144BDB6E134A43F02003D3660E210120E6
:10063000FFF716FF0E210120FFF738FF0120FFF71B
:10064000C3FF0D4B0D4A5A600B4B00229A600A4BB8
:1006500007221A6062B600BF04210120FFF772FF73
:1006600008210120FFF76EFF08210120FFF76AFF34
:10067000F6E700BF00E00F4010E000E0FF23F400C9
:1006800080B485B000AF78600023FB6002E0FB68B7
:100690000133FB60FA687B689A42F8D300BF00BF61
:1006A0001437BD4680BC704780B586B000AF0023CC
:1006B0007B6102E07B6901337B617B691C4A934269
:1006C000F8D91C4A1C4BD31A3B601C4B3B611A4B9C
:1006D000FB600023BB600AE03A69531C3B61FB6886
:1006E000591CF96012781A70BB680133BB60BA6894
:1006F0003B689A42F0D3124A124BD31A3B60114B1B
:10070000FB6000237B6007E0FB685A1CFA60002254
:100710001A707B6801337B607A683B689A42F3D336
:1007200000F0BCF9FFF772FF00BF1837BD4680BD6F
:100730003F420F000800002000000020500B000086
:10074000080000200800002004484FF00101FFF7D6
:10075000ADBD4E4D490000BF00BF00005207000074
:1007600005484FF00101FFF7A1BD4D656D4D616E6C
:100770006167650000BF00006A07000005484FF090
:100780000101FFF793BD486172644661756C7400A6
:1007900000BF00008607000005484FF00101FFF789
:1007A00085BD4275734661756C74000000BF000022
:1007B000A207000006484FF00101FFF777BD55730F
:1007C0006167654661756C74000000BF00BF000082
:1007D000BE07000005484FF00101FFF767BD446503
:1007E0006661756C740000BF00BF0000DE0700008A
:1007F00080B485B000AF78603960534BFB603B68D4
:10080000032B00F29A8001A252F823F01D08000089
:10081000250900002B090000310900007B68162B18
:1008200000F28A8001A252F823F000BF890800007C
:100830008F080000970800009D080000A508000030
:10084000AB080000B3080000B9080000C1080000B0
:10085000C9080000CF080000D5080000DB08000030
:10086000E1080000E9080000EF080000F7080000B8
:10087000FD08000003090000090900000F0900003D
:10088000150900001B090000304BFB6049E04FF4E4
:10089000E113FB6045E02E4BFB6042E04FF4161382
:1008A000FB603EE02B4BFB603BE04FF46113FB60D1
:1008B00037E0294BFB6034E04FF47A13FB6030E003
:1008C0004FF49603FB602CE0244BFB6029E0244BA3
:1008D000FB6026E0234BFB6023E0234BFB6020E022
:1008E0004FF4E103FB601CE0204BFB6019E04FF488
:1008F000FA03FB6015E01E4BFB6012E01D4BFB6032
:100900000FE01D4BFB600CE01C4BFB6009E01C4B37
:10091000FB6006E00C4BFB6003E04FF47A03FB60E6
:1009200000BF09E0084BFB6007E00B4BFB6004E0F5
:1009300047F23053FB6000E000BFFB6818461437F5
:10094000BD4680BC704700BF0024F40040420F0049
:1009500080841E00999E360000093D00404B4C00EB
:1009600000204E00808D5B0000C05D0000127A0008
:1009700080969800001BB7000080BB00C0E8CE0046
:10098000647ADA0080B582B000AF414B1B6E7B60A9
:100990003F4B1B6F3B603B68002B3ADA3B6803F42C
:1009A0000063002B0FD07B689B0903F00F023B68AC
:1009B0001B0903F0070319461046FFF719FF03460A
:1009C000344A136002E0334B334A1A607B6803F405
:1009D0008003002B57D03B6803F40063002B0BD03F
:1009E0002C4B1A683B68DB0D03F03F030133B2FB6D
:1009F000F3F3284A136046E0264B1A683B68DB0D88
:100A000003F03F030133B2FBF3F35B08214A1360A9
:100A100039E07B6803F40063002B0FD07B689B09EF
:100A200003F01F027B681B0903F0030319461046FD
:100A3000FFF7DEFE0346174A136002E0154B164A25
:100A40001A607B6803F48003002B1CD07B6803F4DE
:100A50000063002B0BD00F4B1A687B68DB0D03F093
:100A60000F030133B2FBF3F30A4A13600BE0094BA7
:100A70001A687B68DB0D03F00F030133B2FBF3F35D
:100A80005B08044A136000BF0837BD4680BD00BF45
:100A900000E00F40040000200084D71780B483B02A
:100AA00000AF244B244A1A67224B244A1A66214B72
:100AB000234A1A661F4B234A1A6700237B6002E011
:100AC0007B6801337B607B68B3F57A7FF8D3194B81
:100AD0001D4A1A66174B1D4A1A6700237B6002E005
:100AE0007B6801337B607B68B3F57A7FF8D3114B69
:100AF000154A1A6600BF0F4B1B6D03F04003402BD5
:100B0000F9D10C4B104A1A660A4B4FF0C0721A67A3
:100B100000237B6002E07B6801337B607B6842F2EC
:100B20000F729342F7D900BF00BF0C37BD4680BC9F
:100B3000704700BF00E00F4010288007D13A8E07B1
:100B4000422D9E0100288001420D9E010008800177
:080B5000640000000024F40021
:04000003000006A94A
:00000001FF
