:10000000008000209D0700003D08000071080000EE
:10001000550800008D080000A9080000000000003D
:10002000000000000000000000000000C9080000FF
:10003000C908000000000000C90800009D0200007F
:10004000C9080000C9080000C9080000C90800006C
:10005000C9080000C9080000C9080000C90800005C
:10006000C9080000C9080000C9080000C90800004C
:10007000C9080000C9080000C9080000C90800003C
:10008000C9080000C9080000C9080000C90800002C
:10009000C9080000C9080000C9080000C90800001C
:1000A000C9080000C9080000C908000000000000DD
:1000B000C9080000C9080000C908000000000000CD
:1000C00000000000C9080000C9080000C9080000BD
:1000D000C9080000C9080000C9080000C9080000DC
:1000E000C90800000000000000000000C90800006E
:1000F000C9080000C9080000C9080000C9080000BC
:10010000C9080000C9080000C9080000C9080000AB
:1001100000000000000000000000000000000000DF
:1001200000000000C9080000C9080000C90800005C
:10013000C9080000C9080000C9080000C90800007B
:1001400000000000000000000000000000000000AF
:10015000C9080000C9080000C9080000C90800005B
:10016000000000000000000000000000000000008F
:10017000000000000000000000000000000000007F
:10018000000000000000000000000000000000006F
:10019000000000000000000000000000000000005F
:1001A000000000000000000000000000000000004F
:1001B000C9080000C9080000C9080000C9080000FB
:1001C000C9080000C9080000C9080000C9080000EB
:1001D000C9080000C9080000C9080000C9080000DB
:1001E000C9080000C9080000C9080000000000009C
:1001F00000000000000000000000000000000000FF
:1002000000000000000000000000000000000000EE
:1002100000000000000000000000000000000000DE
:1002200000000000000000000000000000000000CE
:1002300000000000000000000000000000000000BE
:1002400000000000000000000000000000000000AE
:100250000000000000000000C9080000C9080000FC
:10026000C9080000C9080000C908000080B400AF38
:10027000BFF34F8F00BF074BDB6803F4E062054913
:10028000054B1343CB60BFF34F8F00BF00BF00BFD0
:10029000FCE700BF00ED00E00400FA0580B400AF09
:1002A000044B1B680133034A136000BFBD4680BC8A
:1002B000704700BF0400002080B483B000AF72B666
:1002C00000BF054B1B687B6062B600BF7B681846A9
:1002D0000C37BD4680BC70470400002080B584B058
:1002E00000AF7860FFF7E8FFF86000BFFFF7E4FFBA
:1002F0000246FB68D31A7A689A42F7D800BF00BF5B
:100300001037BD4680BD000080B483B000AF786078
:100310007B68013BB3F1807F01D301230AE0084AE7
:100320007B68013B5360064B00229A60044B072216
:100330001A60002318460C37BD4680BC704700BFCA
:1003400010E000E080B500AF134BD3F80836124A36
:1003500043F02003C2F808360F4BDB6E0E4A43F021
:100360002003D3660E21012000F0F2F80E210120B7
:1003700000F014F9012000F09FF900F07DFB074B1D
:100380001B68074AA2FB03235B091846FFF7BCFF63
:1003900062B600BF00BF80BD00E00F40000000203B
:1003A0001F85EB5180B483B000AF03460A46FB7152
:1003B0001346BB71FB79012B08D10C4BD3F80024F9
:1003C000BB790A491343C1F8003409E0074BD3F85D
:1003D0000034BA79D2431146044A0B40C2F80034C3
:1003E00000BF0C37BD4680BC704700BF00500240C4
:1003F00080B483B000AF03460A46FB711346BB715D
:10040000FB79012B08D10C4BD3F81C25BB790A4989
:100410001343C1F81C3509E0074BD3F81C35BA79F2
:10042000D2431146044A0B40C2F81C3500BF0C37BA
:10043000BD4680BC704700BF0050024080B483B00E
:1004400000AF03460A46FB711346BB71FB79012BD3
:100450000AD10C4ABB7952F82310BA790948BB7902
:100460004A4040F8232007E0064BD3F8FC23BB7931
:1004700004495340C1F8FC3300BF0C37BD4680BC73
:10048000704700BF0050024080B483B000AF034605
:100490000A46FB711346BB71FB79012B05D1094953
:1004A000BB79BA7941F8232007E0064BD3F8FC2347
:1004B000BB7904491343C1F8FC3300BF0C37BD4678
:1004C00080BC70470050024080B483B000AF034648
:1004D0000A46FB711346BB71FB79012B05D10A4A11
:1004E000BB79002142F8231009E0074BD3F8FC3315
:1004F000BA79D2431146044A0B40C2F8FC3300BF1C
:100500000C37BD4680BC70470050024080B483B0B9
:1005100000AF0346FB71FB79012B09D10B4B002285
:100520009A600A4B00221A61084B00221A6207E007
:10053000064BD3F8FC33054A23F00E03C2F8FC3314
:1005400000BF0C37BD4680BC704700BF0050024062
:1005500080B483B000AF03460A46FB711346BB71FB
:10056000FB79012B08D10C4BD3F80024BB790A4945
:100570001343C1F8003409E0074BD3F80034BA79CB
:10058000D2431146044A0B40C2F8003400BF0C3776
:10059000BD4680BC704700BF00D0054080B483B02A
:1005A00000AF03460A46FB711346BB71FB79012B72
:1005B00008D10C4BD3F81C25BB790A491343C1F869
:1005C0001C3509E0074BD3F81C35BA79D2431146E4
:1005D000044A0B40C2F81C3500BF0C37BD4680BC36
:1005E000704700BF00D0054080B483B000AF034621
:1005F0000A46FB711346BB71FB79012B0AD10C4AE9
:10060000BB7952F82310BA790948BB794A4040F8BF
:10061000232007E0064BD3F8FC23BB790449534061
:10062000C1F8FC3300BF0C37BD4680BC704700BF2B
:1006300000D0054080B483B000AF03460A46FB718A
:100640001346BB71FB79012B05D10949BB79BA79F6
:1006500041F8232007E0064BD3F8FC23BB7904497B
:100660001343C1F8FC3300BF0C37BD4680BC704754
:1006700000D0054080B483B000AF03460A46FB714A
:100680001346BB71FB79012B05D10A4ABB790021C6
:1006900042F8231009E0074BD3F8FC33BA79D24370
:1006A0001146044A0B40C2F8FC3300BF0C37BD466C
:1006B00080BC704700D0054080B483B000AF0346D3
:1006C000FB71FB79012B09D10B4B00229A600A4B7D
:1006D00000221A61084B00221A6207E0064BD3F889
:1006E000FC33054A23F00E03C2F8FC3300BF0C377D
:1006F000BD4680BC704700BF00D00540FFF7B6FD87
:1007000000BF000080B500AFFFF71CFE214B1B7837
:10071000022B24D0022B37DC002B02D0012B09D076
:1007200032E0FFF7C9FD03461B4A1360194B012253
:100730001A702EE0FFF7C0FD0246174B1B68D31A54
:100740004B2B23D908210120FFF774FFFFF7B4FDDD
:100750000346114A13600F4B02221A7016E0FFF78E
:10076000ABFD02460C4B1B68D31A192B10D908217C
:100770000120FFF77FFFFFF79FFD0346064A136046
:10078000044B01221A7003E000BFBFE700BFBDE7C2
:1007900000BFBBE7080000200C00002080B586B039
:1007A00000AF00237B6102E07B6901337B617B69E1
:1007B0001C4A9342F8D91C4A1C4BD31A3B601C4B71
:1007C0003B611A4BFB600023BB600AE03A69531C93
:1007D0003B61FB68591CF96012781A70BB680133E1
:1007E000BB60BA683B689A42F0D3124A124BD31AE4
:1007F0003B60114BFB6000237B6007E0FB685A1CE9
:10080000FA6000221A707B6801337B607A683B686B
:100810009A42F3D300F0BCF9FFF774FF00BF18371A
:10082000BD4680BD3F420F000400002000000020B4
:10083000440C0000100000200400002004484FF089
:100840000101FFF75BBF4E4D490000BF00BF000034
:100850004608000005484FF00101FFF74FBF4D6506
:100860006D4D616E6167650000BF00005E080000AD
:1008700005484FF00101FFF741BF486172644661CE
:10088000756C740000BF00007A08000005484FF046
:100890000101FFF733BF4275734661756C74000048
:1008A00000BF00009608000006484FF00101FFF766
:1008B00025BF55736167654661756C74000000BFA4
:1008C00000BF0000B208000005484FF00101FFF72B
:1008D00015BF44656661756C740000BF00BF000001
:1008E000D208000080B485B000AF78603960534B07
:1008F000FB603B68032B00F29A8001A252F823F0C0
:1009000011090000190A00001F0A0000250A000052
:100910007B68162B00F28A8001A252F823F000BFF8
:100920007D090000830900008B0900009109000087
:10093000990900009F090000A7090000AD09000007
:10094000B5090000BD090000C3090000C909000085
:10095000CF090000D5090000DD090000E30900000F
:10096000EB090000F1090000F7090000FD09000093
:10097000030A0000090A00000F0A0000304BFB6068
:1009800049E04FF4E113FB6045E02E4BFB6042E091
:100990004FF41613FB603EE02B4BFB603BE04FF443
:1009A0006113FB6037E0294BFB6034E04FF47A13AE
:1009B000FB6030E04FF49603FB602CE0244BFB60BF
:1009C00029E0244BFB6026E0234BFB6023E0234B14
:1009D000FB6020E04FF4E103FB601CE0204BFB6078
:1009E00019E04FF4FA03FB6015E01E4BFB6012E0C8
:1009F0001D4BFB600FE01D4BFB600CE01C4BFB60D4
:100A000009E01C4BFB6006E00C4BFB6003E04FF47D
:100A10007A03FB6000BF09E0084BFB6007E00B4B6B
:100A2000FB6004E047F23053FB6000E000BFFB686E
:100A300018461437BD4680BC704700BF0024F40040
:100A400040420F0080841E00999E360000093D0040
:100A5000404B4C0000204E00808D5B0000C05D00CC
:100A600000127A0080969800001BB7000080BB003F
:100A7000C0E8CE00647ADA0080B582B000AF414BA6
:100A80001B6E7B603F4B1B6F3B603B68002B3ADA71
:100A90003B6803F40063002B0FD07B689B0903F0D5
:100AA0000F023B681B0903F0070319461046FFF7C6
:100AB00019FF0346344A136002E0334B334A1A608D
:100AC0007B6803F48003002B57D03B6803F400637A
:100AD000002B0BD02C4B1A683B68DB0D03F03F0357
:100AE0000133B2FBF3F3284A136046E0264B1A6841
:100AF0003B68DB0D03F03F030133B2FBF3F35B080C
:100B0000214A136039E07B6803F40063002B0FD0A7
:100B10007B689B0903F01F027B681B0903F003033A
:100B200019461046FFF7DEFE0346174A136002E03F
:100B3000154B164A1A607B6803F48003002B1CD007
:100B40007B6803F40063002B0BD00F4B1A687B68A3
:100B5000DB0D03F00F030133B2FBF3F30A4A13601A
:100B60000BE0094B1A687B68DB0D03F00F030133C0
:100B7000B2FBF3F35B08044A136000BF0837BD46BD
:100B800080BD00BF00E00F40000000200084D717A8
:100B900080B483B000AF244B244A1A67224B244A06
:100BA0001A66214B234A1A661F4B234A1A670023F1
:100BB0007B6002E07B6801337B607B68B3F57A7F02
:100BC000F8D3194B1D4A1A66174B1D4A1A670023A2
:100BD0007B6002E07B6801337B607B68B3F57A7FE2
:100BE000F8D3114B154A1A6600BF0F4B1B6D03F06B
:100BF0004003402BF9D10C4B104A1A660A4B4FF0B8
:100C0000C0721A6700237B6002E07B6801337B605F
:100C10007B6842F20F729342F7D900BF00BF0C37D6
:100C2000BD4680BC704700BF00E00F401028800721
:100C3000D13A8E07422D9E0100288001420D9E016F
:040C40000008800127
:040C44000024F40094
:040000030000079D55
:00000001FF
